{
  "_format": "hh-sol-artifact-1",
  "contractName": "AccessControl",
  "sourceName": "contracts/AccessControl.sol",
  "abi": [
    {
      "inputs": [
        {
          "internalType": "address",
          "name": "_recordRegistry",
          "type": "address"
        },
        {
          "internalType": "address",
          "name": "_doctorRegistry",
          "type": "address"
        }
      ],
      "stateMutability": "nonpayable",
      "type": "constructor"
    },
    {
      "anonymous": false,
      "inputs": [
        {
          "indexed": true,
          "internalType": "uint256",
          "name": "accessId",
          "type": "uint256"
        },
        {
          "indexed": true,
          "internalType": "uint256",
          "name": "recordId",
          "type": "uint256"
        },
        {
          "indexed": true,
          "internalType": "address",
          "name": "doctor",
          "type": "address"
        },
        {
          "indexed": false,
          "internalType": "uint256",
          "name": "timestamp",
          "type": "uint256"
        }
      ],
      "name": "AccessExpired",
      "type": "event"
    },
    {
      "anonymous": false,
      "inputs": [
        {
          "indexed": true,
          "internalType": "uint256",
          "name": "accessId",
          "type": "uint256"
        },
        {
          "indexed": true,
          "internalType": "uint256",
          "name": "recordId",
          "type": "uint256"
        },
        {
          "indexed": true,
          "internalType": "address",
          "name": "doctor",
          "type": "address"
        },
        {
          "indexed": false,
          "internalType": "address",
          "name": "patient",
          "type": "address"
        },
        {
          "indexed": false,
          "internalType": "string",
          "name": "encryptedKeyCID",
          "type": "string"
        },
        {
          "indexed": false,
          "internalType": "uint256",
          "name": "expiresAt",
          "type": "uint256"
        },
        {
          "indexed": false,
          "internalType": "uint256",
          "name": "timestamp",
          "type": "uint256"
        }
      ],
      "name": "AccessGranted",
      "type": "event"
    },
    {
      "anonymous": false,
      "inputs": [
        {
          "indexed": true,
          "internalType": "uint256",
          "name": "accessId",
          "type": "uint256"
        },
        {
          "indexed": true,
          "internalType": "uint256",
          "name": "recordId",
          "type": "uint256"
        },
        {
          "indexed": true,
          "internalType": "address",
          "name": "doctor",
          "type": "address"
        },
        {
          "indexed": false,
          "internalType": "address",
          "name": "patient",
          "type": "address"
        },
        {
          "indexed": false,
          "internalType": "string",
          "name": "reason",
          "type": "string"
        },
        {
          "indexed": false,
          "internalType": "uint256",
          "name": "timestamp",
          "type": "uint256"
        }
      ],
      "name": "AccessRequested",
      "type": "event"
    },
    {
      "anonymous": false,
      "inputs": [
        {
          "indexed": true,
          "internalType": "uint256",
          "name": "accessId",
          "type": "uint256"
        },
        {
          "indexed": true,
          "internalType": "uint256",
          "name": "recordId",
          "type": "uint256"
        },
        {
          "indexed": true,
          "internalType": "address",
          "name": "doctor",
          "type": "address"
        },
        {
          "indexed": false,
          "internalType": "uint256",
          "name": "timestamp",
          "type": "uint256"
        }
      ],
      "name": "AccessRevoked",
      "type": "event"
    },
    {
      "inputs": [
        {
          "internalType": "uint256",
          "name": "",
          "type": "uint256"
        }
      ],
      "name": "accessGrants",
      "outputs": [
        {
          "internalType": "uint256",
          "name": "recordId",
          "type": "uint256"
        },
        {
          "internalType": "address",
          "name": "patient",
          "type": "address"
        },
        {
          "internalType": "address",
          "name": "doctor",
          "type": "address"
        },
        {
          "internalType": "string",
          "name": "encryptedKeyCID",
          "type": "string"
        },
        {
          "internalType": "uint256",
          "name": "grantedAt",
          "type": "uint256"
        },
        {
          "internalType": "uint256",
          "name": "expiresAt",
          "type": "uint256"
        },
        {
          "internalType": "enum AccessControl.AccessStatus",
          "name": "status",
          "type": "uint8"
        },
        {
          "internalType": "string",
          "name": "requestReason",
          "type": "string"
        }
      ],
      "stateMutability": "view",
      "type": "function"
    },
    {
      "inputs": [],
      "name": "doctorRegistry",
      "outputs": [
        {
          "internalType": "contract DoctorRegistry",
          "name": "",
          "type": "address"
        }
      ],
      "stateMutability": "view",
      "type": "function"
    },
    {
      "inputs": [
        {
          "internalType": "uint256",
          "name": "_accessId",
          "type": "uint256"
        }
      ],
      "name": "getAccessGrant",
      "outputs": [
        {
          "components": [
            {
              "internalType": "uint256",
              "name": "recordId",
              "type": "uint256"
            },
            {
              "internalType": "address",
              "name": "patient",
              "type": "address"
            },
            {
              "internalType": "address",
              "name": "doctor",
              "type": "address"
            },
            {
              "internalType": "string",
              "name": "encryptedKeyCID",
              "type": "string"
            },
            {
              "internalType": "uint256",
              "name": "grantedAt",
              "type": "uint256"
            },
            {
              "internalType": "uint256",
              "name": "expiresAt",
              "type": "uint256"
            },
            {
              "internalType": "enum AccessControl.AccessStatus",
              "name": "status",
              "type": "uint8"
            },
            {
              "internalType": "string",
              "name": "requestReason",
              "type": "string"
            }
          ],
          "internalType": "struct AccessControl.AccessGrant",
          "name": "",
          "type": "tuple"
        }
      ],
      "stateMutability": "view",
      "type": "function"
    },
    {
      "inputs": [
        {
          "internalType": "address",
          "name": "_doctor",
          "type": "address"
        }
      ],
      "name": "getDoctorAccessibleRecords",
      "outputs": [
        {
          "internalType": "uint256[]",
          "name": "",
          "type": "uint256[]"
        }
      ],
      "stateMutability": "view",
      "type": "function"
    },
    {
      "inputs": [
        {
          "internalType": "uint256",
          "name": "_recordId",
          "type": "uint256"
        }
      ],
      "name": "getEncryptedKey",
      "outputs": [
        {
          "internalType": "string",
          "name": "",
          "type": "string"
        }
      ],
      "stateMutability": "view",
      "type": "function"
    },
    {
      "inputs": [
        {
          "internalType": "address",
          "name": "_patient",
          "type": "address"
        }
      ],
      "name": "getPendingRequests",
      "outputs": [
        {
          "internalType": "uint256[]",
          "name": "",
          "type": "uint256[]"
        }
      ],
      "stateMutability": "view",
      "type": "function"
    },
    {
      "inputs": [
        {
          "internalType": "uint256",
          "name": "_accessId",
          "type": "uint256"
        },
        {
          "internalType": "string",
          "name": "_encryptedKeyCID",
          "type": "string"
        },
        {
          "internalType": "uint256",
          "name": "_durationDays",
          "type": "uint256"
        }
      ],
      "name": "grantAccess",
      "outputs": [],
      "stateMutability": "nonpayable",
      "type": "function"
    },
    {
      "inputs": [
        {
          "internalType": "uint256",
          "name": "_recordId",
          "type": "uint256"
        },
        {
          "internalType": "address",
          "name": "_doctor",
          "type": "address"
        }
      ],
      "name": "hasActiveAccess",
      "outputs": [
        {
          "internalType": "bool",
          "name": "",
          "type": "bool"
        }
      ],
      "stateMutability": "view",
      "type": "function"
    },
    {
      "inputs": [
        {
          "internalType": "uint256",
          "name": "",
          "type": "uint256"
        },
        {
          "internalType": "address",
          "name": "",
          "type": "address"
        }
      ],
      "name": "recordDoctorAccess",
      "outputs": [
        {
          "internalType": "uint256",
          "name": "",
          "type": "uint256"
        }
      ],
      "stateMutability": "view",
      "type": "function"
    },
    {
      "inputs": [],
      "name": "recordRegistry",
      "outputs": [
        {
          "internalType": "contract RecordRegistry",
          "name": "",
          "type": "address"
        }
      ],
      "stateMutability": "view",
      "type": "function"
    },
    {
      "inputs": [
        {
          "internalType": "uint256",
          "name": "_recordId",
          "type": "uint256"
        },
        {
          "internalType": "string",
          "name": "_reason",
          "type": "string"
        }
      ],
      "name": "requestAccess",
      "outputs": [
        {
          "internalType": "uint256",
          "name": "",
          "type": "uint256"
        }
      ],
      "stateMutability": "nonpayable",
      "type": "function"
    },
    {
      "inputs": [
        {
          "internalType": "uint256",
          "name": "_accessId",
          "type": "uint256"
        }
      ],
      "name": "revokeAccess",
      "outputs": [],
      "stateMutability": "nonpayable",
      "type": "function"
    }
  ],
  "bytecode": "0x60806040523480156200001157600080fd5b506040516200262538038062002625833981016040819052620000349162000087565b600580546001600160a01b039384166001600160a01b0319918216179091556006805492909316911617905560008055620000bf565b80516001600160a01b03811681146200008257600080fd5b919050565b600080604083850312156200009b57600080fd5b620000a6836200006a565b9150620000b6602084016200006a565b90509250929050565b61255680620000cf6000396000f3fe608060405234801561001057600080fd5b50600436106100b45760003560e01c8063bb30143a11610071578063bb30143a14610183578063d1c6743614610198578063dab52a76146101d1578063e1b97d69146101e4578063f05bfa7b146101f7578063f499924b1461020a57600080fd5b80631dc4f487146100b95780632535de48146100e95780633171cede14610109578063319568f41461012957806382cfb2ff146101505780639cb1900314610163575b600080fd5b6005546100cc906001600160a01b031681565b6040516001600160a01b0390911681526020015b60405180910390f35b6100fc6100f7366004611d64565b61022d565b6040516100e09190611d88565b61011c610117366004611dcc565b610817565b6040516100e09190611e35565b61013c610137366004611dcc565b610af5565b6040516100e0989796959493929190611e80565b6006546100cc906001600160a01b031681565b610176610171366004611dcc565b610c5d565b6040516100e09190611eef565b610196610191366004612081565b610eb7565b005b6101c36101a63660046120d1565b600260209081526000928352604080842090915290825290205481565b6040519081526020016100e0565b6101c36101df366004612101565b611156565b6101966101f2366004611dcc565b611782565b6100fc610205366004611d64565b611948565b61021d6102183660046120d1565b611b23565b60405190151581526020016100e0565b6001600160a01b038116600090815260036020908152604080832080548251818502810185019093528083526060949383018282801561028c57602002820191906000526020600020905b815481526020019060010190808311610278575b505050505090506000805b8251811015610510576000600260008584815181106102b8576102b8612148565b602002602001015181526020019081526020016000206000876001600160a01b03166001600160a01b03168152602001908152602001600020549050806000146104fd57600081815260016020818152604080842081516101008101835281548152938101546001600160a01b03908116938501939093526002810154909216908301526003810180546060840191906103519061215e565b80601f016020809104026020016040519081016040528092919081815260200182805461037d9061215e565b80156103ca5780601f1061039f576101008083540402835291602001916103ca565b820191906000526020600020905b8154815290600101906020018083116103ad57829003601f168201915b5050509183525050600482810154602083015260058301546040830152600683015460609092019160ff169081111561040557610405611e48565b600481111561041657610416611e48565b815260200160078201805461042a9061215e565b80601f01602080910402602001604051908101604052809291908181526020018280546104569061215e565b80156104a35780601f10610478576101008083540402835291602001916104a3565b820191906000526020600020905b81548152906001019060200180831161048657829003601f168201915b5050505050815250509050600260048111156104c1576104c1611e48565b8160c0015160048111156104d7576104d7611e48565b1480156104e857508060a001514211155b156104fb57836104f7816121ae565b9450505b505b5080610508816121ae565b915050610297565b5060008167ffffffffffffffff81111561052c5761052c611f92565b604051908082528060200260200182016040528015610555578160200160208202803683370190505b5090506000805b845181101561080c5760006002600087848151811061057d5761057d612148565b602002602001015181526020019081526020016000206000896001600160a01b03166001600160a01b03168152602001908152602001600020549050806000146107f957600081815260016020818152604080842081516101008101835281548152938101546001600160a01b03908116938501939093526002810154909216908301526003810180546060840191906106169061215e565b80601f01602080910402602001604051908101604052809291908181526020018280546106429061215e565b801561068f5780601f106106645761010080835404028352916020019161068f565b820191906000526020600020905b81548152906001019060200180831161067257829003601f168201915b5050509183525050600482810154602083015260058301546040830152600683015460609092019160ff16908111156106ca576106ca611e48565b60048111156106db576106db611e48565b81526020016007820180546106ef9061215e565b80601f016020809104026020016040519081016040528092919081815260200182805461071b9061215e565b80156107685780601f1061073d57610100808354040283529160200191610768565b820191906000526020600020905b81548152906001019060200180831161074b57829003601f168201915b50505050508152505090506002600481111561078657610786611e48565b8160c00151600481111561079c5761079c611e48565b1480156107ad57508060a001514211155b156107f7578683815181106107c4576107c4612148565b60200260200101518585815181106107de576107de612148565b6020908102919091010152836107f3816121ae565b9450505b505b5080610804816121ae565b91505061055c565b509095945050505050565b60008181526002602090815260408083203384529091528120546060918190036108885760405162461bcd60e51b815260206004820152601760248201527f4e6f20616363657373207265717565737420666f756e6400000000000000000060448201526064015b60405180910390fd5b600081815260016020818152604080842081516101008101835281548152938101546001600160a01b03908116938501939093526002810154909216908301526003810180546060840191906108dd9061215e565b80601f01602080910402602001604051908101604052809291908181526020018280546109099061215e565b80156109565780601f1061092b57610100808354040283529160200191610956565b820191906000526020600020905b81548152906001019060200180831161093957829003601f168201915b5050509183525050600482810154602083015260058301546040830152600683015460609092019160ff169081111561099157610991611e48565b60048111156109a2576109a2611e48565b81526020016007820180546109b69061215e565b80601f01602080910402602001604051908101604052809291908181526020018280546109e29061215e565b8015610a2f5780601f10610a0457610100808354040283529160200191610a2f565b820191906000526020600020905b815481529060010190602001808311610a1257829003601f168201915b505050505081525050905060026004811115610a4d57610a4d611e48565b8160c001516004811115610a6357610a63611e48565b14610aa55760405162461bcd60e51b81526020600482015260126024820152711058d8d95cdcc81b9bdd0819dc985b9d195960721b604482015260640161087f565b8060a00151421115610aea5760405162461bcd60e51b815260206004820152600e60248201526d1058d8d95cdcc8195e1c1a5c995960921b604482015260640161087f565b606001519392505050565b600160208190526000918252604090912080549181015460028201546003830180546001600160a01b03938416949290931692610b319061215e565b80601f0160208091040260200160405190810160405280929190818152602001828054610b5d9061215e565b8015610baa5780601f10610b7f57610100808354040283529160200191610baa565b820191906000526020600020905b815481529060010190602001808311610b8d57829003601f168201915b5050506004840154600585015460068601546007870180549697939692955060ff909116935090610bda9061215e565b80601f0160208091040260200160405190810160405280929190818152602001828054610c069061215e565b8015610c535780601f10610c2857610100808354040283529160200191610c53565b820191906000526020600020905b815481529060010190602001808311610c3657829003601f168201915b5050505050905088565b610ca460408051610100810182526000808252602082018190529181018290526060808201526080810182905260a081018290529060c08201908152602001606081525090565b6000828152600160205260408120549003610cf95760405162461bcd60e51b81526020600482015260156024820152741058d8d95cdcc8191bd95cc81b9bdd08195e1a5cdd605a1b604482015260640161087f565b60008281526001602081815260409283902083516101008101855281548152928101546001600160a01b0390811692840192909252600281015490911692820192909252600382018054919291606084019190610d559061215e565b80601f0160208091040260200160405190810160405280929190818152602001828054610d819061215e565b8015610dce5780601f10610da357610100808354040283529160200191610dce565b820191906000526020600020905b815481529060010190602001808311610db157829003601f168201915b5050509183525050600482810154602083015260058301546040830152600683015460609092019160ff1690811115610e0957610e09611e48565b6004811115610e1a57610e1a611e48565b8152602001600782018054610e2e9061215e565b80601f0160208091040260200160405190810160405280929190818152602001828054610e5a9061215e565b8015610ea75780601f10610e7c57610100808354040283529160200191610ea7565b820191906000526020600020905b815481529060010190602001808311610e8a57829003601f168201915b5050505050815250509050919050565b6000838152600160205260408120549003610f145760405162461bcd60e51b815260206004820152601d60248201527f416363657373207265717565737420646f6573206e6f74206578697374000000604482015260640161087f565b6000838152600160208190526040909120908101546001600160a01b03163314610f805760405162461bcd60e51b815260206004820152601d60248201527f4f6e6c792070617469656e742063616e206772616e7420616363657373000000604482015260640161087f565b6001600682015460ff166004811115610f9b57610f9b611e48565b14610fe85760405162461bcd60e51b815260206004820152601d60248201527f416363657373206e6f7420696e20726571756573746564207374617465000000604482015260640161087f565b60008351116110395760405162461bcd60e51b815260206004820152601a60248201527f456e63727970746564206b657920434944207265717569726564000000000000604482015260640161087f565b60008211801561104b575061016d8211155b61108a5760405162461bcd60e51b815260206004820152601060248201526f24b73b30b634b210323ab930ba34b7b760811b604482015260640161087f565b600061109983620151806121c7565b6110a390426121de565b9050600382016110b38582612240565b5042600483018190556005830182905560068301805460ff19166002908117909155830180546001600160a01b03908116600090815260036020908152604080832088548154600181018355918552929093209092015591548554925191169288917f5daae4d0feaaf7176c70ad1e7e48ff86801f723f09631ea89fb3a6a114f30fa9916111479133918b91899190612300565b60405180910390a45050505050565b600654604051631bf9d75160e01b81523360048201526000916001600160a01b031690631bf9d75190602401602060405180830381865afa15801561119f573d6000803e3d6000fd5b505050506040513d601f19601f820116820180604052508101906111c3919061234c565b6112075760405162461bcd60e51b81526020600482015260156024820152744f6e6c7920766572696669656420646f63746f727360581b604482015260640161087f565b6005546040516303e9e60960e01b8152600481018590526000916001600160a01b0316906303e9e60990602401600060405180830381865afa158015611251573d6000803e3d6000fd5b505050506040513d6000823e601f3d908101601f1916820160405261127991908101906123ce565b90508061012001516112c45760405162461bcd60e51b81526020600482015260146024820152735265636f7264206973206e6f742061637469766560601b604482015260640161087f565b60008351116113075760405162461bcd60e51b815260206004820152600f60248201526e1499585cdbdb881c995c5d5a5c9959608a1b604482015260640161087f565b60c88351111561134b5760405162461bcd60e51b815260206004820152600f60248201526e526561736f6e20746f6f206c6f6e6760881b604482015260640161087f565b600084815260026020908152604080832033845290915290205480156115a457600081815260016020818152604080842081516101008101835281548152938101546001600160a01b03908116938501939093526002810154909216908301526003810180546060840191906113c09061215e565b80601f01602080910402602001604051908101604052809291908181526020018280546113ec9061215e565b80156114395780601f1061140e57610100808354040283529160200191611439565b820191906000526020600020905b81548152906001019060200180831161141c57829003601f168201915b5050509183525050600482810154602083015260058301546040830152600683015460609092019160ff169081111561147457611474611e48565b600481111561148557611485611e48565b81526020016007820180546114999061215e565b80601f01602080910402602001604051908101604052809291908181526020018280546114c59061215e565b80156115125780601f106114e757610100808354040283529160200191611512565b820191906000526020600020905b8154815290600101906020018083116114f557829003601f168201915b50505050508152505090506002600481111561153057611530611e48565b8160c00151600481111561154657611546611e48565b14158061155657508060a0015142115b6115a25760405162461bcd60e51b815260206004820152601960248201527f416c726561647920686173206163746976652061636365737300000000000000604482015260640161087f565b505b6000805490806115b3836121ae565b919050555060008054905060405180610100016040528087815260200184602001516001600160a01b03168152602001336001600160a01b0316815260200160405180602001604052806000815250815260200160008152602001600081526020016001600481111561162857611628611e48565b8152602090810187905260008381526001808352604091829020845181559284015190830180546001600160a01b03199081166001600160a01b0393841617909155918401516002840180549093169116179055606082015160038201906116909082612240565b506080820151816004015560a0820151816005015560c08201518160060160006101000a81548160ff021916908360048111156116cf576116cf611e48565b021790555060e082015160078201906116e89082612240565b50505060008681526002602090815260408083203380855290835281842085905586830180516001600160a01b0316855260048452828520805460018101825590865293909420909201849055915191519091889184917fa0677f0eb2df646b1f7eb6124c2dee0fb04b353c9b2508747b55bb5413ee336a9161176f91908b9042906124ec565b60405180910390a4925050505b92915050565b60008181526001602052604081205490036117d75760405162461bcd60e51b81526020600482015260156024820152741058d8d95cdcc8191bd95cc81b9bdd08195e1a5cdd605a1b604482015260640161087f565b6000818152600160208190526040909120908101546001600160a01b031633146118435760405162461bcd60e51b815260206004820152601760248201527f4f6e6c792070617469656e742063616e207265766f6b65000000000000000000604482015260640161087f565b6002600682015460ff16600481111561185e5761185e611e48565b146118a05760405162461bcd60e51b81526020600482015260126024820152711058d8d95cdcc81b9bdd0819dc985b9d195960721b604482015260640161087f565b80600501544211156118ed5760405162461bcd60e51b81526020600482015260166024820152751058d8d95cdcc8185b1c9958591e48195e1c1a5c995960521b604482015260640161087f565b60068101805460ff19166003179055600281015481546040514281526001600160a01b039092169184907f10b5c82f43a8fb522271081ffb87d6d4e1c3e787b21326fae21e92efe52368519060200160405180910390a45050565b6001600160a01b03811660009081526004602090815260408083208054825181850281018501909352808352606094938301828280156119a757602002820191906000526020600020905b815481526020019060010190808311611993575b505050505090506000805b8251811015611a295760018060008584815181106119d2576119d2612148565b60209081029190910181015182528101919091526040016000206006015460ff166004811115611a0457611a04611e48565b03611a175781611a13816121ae565b9250505b80611a21816121ae565b9150506119b2565b5060008167ffffffffffffffff811115611a4557611a45611f92565b604051908082528060200260200182016040528015611a6e578160200160208202803683370190505b5090506000805b845181101561080c576001806000878481518110611a9557611a95612148565b60209081029190910181015182528101919091526040016000206006015460ff166004811115611ac757611ac7611e48565b03611b1157848181518110611ade57611ade612148565b6020026020010151838381518110611af857611af8612148565b602090810291909101015281611b0d816121ae565b9250505b80611b1b816121ae565b915050611a75565b60008281526002602090815260408083206001600160a01b0385168452909152812054808203611b5757600091505061177c565b600081815260016020818152604080842081516101008101835281548152938101546001600160a01b0390811693850193909352600281015490921690830152600381018054606084019190611bac9061215e565b80601f0160208091040260200160405190810160405280929190818152602001828054611bd89061215e565b8015611c255780601f10611bfa57610100808354040283529160200191611c25565b820191906000526020600020905b815481529060010190602001808311611c0857829003601f168201915b5050509183525050600482810154602083015260058301546040830152600683015460609092019160ff1690811115611c6057611c60611e48565b6004811115611c7157611c71611e48565b8152602001600782018054611c859061215e565b80601f0160208091040260200160405190810160405280929190818152602001828054611cb19061215e565b8015611cfe5780601f10611cd357610100808354040283529160200191611cfe565b820191906000526020600020905b815481529060010190602001808311611ce157829003601f168201915b505050505081525050905060026004811115611d1c57611d1c611e48565b8160c001516004811115611d3257611d32611e48565b148015611d4357508060a001514211155b95945050505050565b6001600160a01b0381168114611d6157600080fd5b50565b600060208284031215611d7657600080fd5b8135611d8181611d4c565b9392505050565b6020808252825182820181905260009190848201906040850190845b81811015611dc057835183529284019291840191600101611da4565b50909695505050505050565b600060208284031215611dde57600080fd5b5035919050565b60005b83811015611e00578181015183820152602001611de8565b50506000910152565b60008151808452611e21816020860160208601611de5565b601f01601f19169290920160200192915050565b602081526000611d816020830184611e09565b634e487b7160e01b600052602160045260246000fd5b60058110611e7c57634e487b7160e01b600052602160045260246000fd5b9052565b8881526001600160a01b0388811660208301528716604082015261010060608201819052600090611eb383820189611e09565b90508660808401528560a0840152611ece60c0840186611e5e565b82810360e0840152611ee08185611e09565b9b9a5050505050505050505050565b602081528151602082015260018060a01b03602083015116604082015260006040830151611f2860608401826001600160a01b03169052565b506060830151610100806080850152611f45610120850183611e09565b9150608085015160a085015260a085015160c085015260c0850151611f6d60e0860182611e5e565b5060e0850151848303601f190182860152611f888382611e09565b9695505050505050565b634e487b7160e01b600052604160045260246000fd5b604051610140810167ffffffffffffffff81118282101715611fcc57611fcc611f92565b60405290565b604051601f8201601f1916810167ffffffffffffffff81118282101715611ffb57611ffb611f92565b604052919050565b600067ffffffffffffffff82111561201d5761201d611f92565b50601f01601f191660200190565b600082601f83011261203c57600080fd5b813561204f61204a82612003565b611fd2565b81815284602083860101111561206457600080fd5b816020850160208301376000918101602001919091529392505050565b60008060006060848603121561209657600080fd5b83359250602084013567ffffffffffffffff8111156120b457600080fd5b6120c08682870161202b565b925050604084013590509250925092565b600080604083850312156120e457600080fd5b8235915060208301356120f681611d4c565b809150509250929050565b6000806040838503121561211457600080fd5b82359150602083013567ffffffffffffffff81111561213257600080fd5b61213e8582860161202b565b9150509250929050565b634e487b7160e01b600052603260045260246000fd5b600181811c9082168061217257607f821691505b60208210810361219257634e487b7160e01b600052602260045260246000fd5b50919050565b634e487b7160e01b600052601160045260246000fd5b6000600182016121c0576121c0612198565b5060010190565b808202811582820484141761177c5761177c612198565b8082018082111561177c5761177c612198565b601f82111561223b57600081815260208120601f850160051c810160208610156122185750805b601f850160051c820191505b8181101561223757828155600101612224565b5050505b505050565b815167ffffffffffffffff81111561225a5761225a611f92565b61226e81612268845461215e565b846121f1565b602080601f8311600181146122a3576000841561228b5750858301515b600019600386901b1c1916600185901b178555612237565b600085815260208120601f198616915b828110156122d2578886015182559484019460019091019084016122b3565b50858210156122f05787850151600019600388901b60f8161c191681555b5050505050600190811b01905550565b6001600160a01b038516815260806020820181905260009061232490830186611e09565b6040830194909452506060015292915050565b8051801515811461234757600080fd5b919050565b60006020828403121561235e57600080fd5b611d8182612337565b805161234781611d4c565b600082601f83011261238357600080fd5b815161239161204a82612003565b8181528460208386010111156123a657600080fd5b6123b7826020830160208701611de5565b949350505050565b80516006811061234757600080fd5b6000602082840312156123e057600080fd5b815167ffffffffffffffff808211156123f857600080fd5b90830190610140828603121561240d57600080fd5b612415611fa8565b8251815261242560208401612367565b602082015260408301518281111561243c57600080fd5b61244887828601612372565b60408301525060608301518281111561246057600080fd5b61246c87828601612372565b60608301525061247e608084016123bf565b608082015260a083015160a082015260c08301518281111561249f57600080fd5b6124ab87828601612372565b60c0830152506124bd60e08401612367565b60e0820152610100838101519082015261012091506124dd828401612337565b91810191909152949350505050565b6001600160a01b038416815260606020820181905260009061251090830185611e09565b905082604083015294935050505056fea2646970667358221220e49da900916a33ce96c106284584bf59fe68b96f00ed981ca7be9542b37bd3d564736f6c63430008130033",
  "linkReferences": {},
  "deployedLinkReferences": {}
}