{
  "_format": "hh-sol-artifact-1",
  "contractName": "AuditLog",
  "sourceName": "contracts/AuditLog.sol",
  "abi": [
    {
      "anonymous": false,
      "inputs": [
        {
          "indexed": true,
          "internalType": "uint256",
          "name": "recordId",
          "type": "uint256"
        },
        {
          "indexed": true,
          "internalType": "address",
          "name": "actor",
          "type": "address"
        },
        {
          "indexed": true,
          "internalType": "enum AuditLog.ActionType",
          "name": "actionType",
          "type": "uint8"
        },
        {
          "indexed": false,
          "internalType": "bytes32",
          "name": "actionHash",
          "type": "bytes32"
        },
        {
          "indexed": false,
          "internalType": "uint256",
          "name": "timestamp",
          "type": "uint256"
        }
      ],
      "name": "AuditEvent",
      "type": "event"
    },
    {
      "anonymous": false,
      "inputs": [
        {
          "indexed": true,
          "internalType": "uint256",
          "name": "recordId",
          "type": "uint256"
        },
        {
          "indexed": true,
          "internalType": "address",
          "name": "actor",
          "type": "address"
        },
        {
          "indexed": false,
          "internalType": "enum AuditLog.ActionType",
          "name": "actionType",
          "type": "uint8"
        },
        {
          "indexed": false,
          "internalType": "string",
          "name": "detailsCID",
          "type": "string"
        },
        {
          "indexed": false,
          "internalType": "uint256",
          "name": "timestamp",
          "type": "uint256"
        }
      ],
      "name": "DetailedAudit",
      "type": "event"
    },
    {
      "inputs": [
        {
          "internalType": "uint256[]",
          "name": "_recordIds",
          "type": "uint256[]"
        },
        {
          "internalType": "address[]",
          "name": "_actors",
          "type": "address[]"
        },
        {
          "internalType": "enum AuditLog.ActionType[]",
          "name": "_actionTypes",
          "type": "uint8[]"
        },
        {
          "internalType": "bytes32[]",
          "name": "_actionHashes",
          "type": "bytes32[]"
        }
      ],
      "name": "logBatch",
      "outputs": [],
      "stateMutability": "nonpayable",
      "type": "function"
    },
    {
      "inputs": [
        {
          "internalType": "uint256",
          "name": "_recordId",
          "type": "uint256"
        },
        {
          "internalType": "address",
          "name": "_actor",
          "type": "address"
        },
        {
          "internalType": "enum AuditLog.ActionType",
          "name": "_actionType",
          "type": "uint8"
        },
        {
          "internalType": "string",
          "name": "_detailsCID",
          "type": "string"
        }
      ],
      "name": "logDetailed",
      "outputs": [],
      "stateMutability": "nonpayable",
      "type": "function"
    },
    {
      "inputs": [
        {
          "internalType": "uint256",
          "name": "_recordId",
          "type": "uint256"
        },
        {
          "internalType": "address",
          "name": "_actor",
          "type": "address"
        },
        {
          "internalType": "enum AuditLog.ActionType",
          "name": "_actionType",
          "type": "uint8"
        },
        {
          "internalType": "bytes32",
          "name": "_actionHash",
          "type": "bytes32"
        }
      ],
      "name": "logEvent",
      "outputs": [],
      "stateMutability": "nonpayable",
      "type": "function"
    }
  ],
  "bytecode": "0x608060405234801561001057600080fd5b50610748806100206000396000f3fe608060405234801561001057600080fd5b50600436106100415760003560e01c806384a2ee3f146100465780638f8e095a1461005b5780639369dcc01461006e575b600080fd5b61005961005436600461043e565b610081565b005b610059610069366004610540565b6101d0565b61005961007c366004610584565b61022d565b82518451148015610093575081518351145b80156100a0575080518251145b6100e85760405162461bcd60e51b8152602060048201526015602482015274082e4e4c2f240d8cadccee8d040dad2e6dac2e8c6d605b1b604482015260640160405180910390fd5b60005b84518110156101c95782818151811061010657610106610644565b6020026020010151600681111561011f5761011f61065a565b84828151811061013157610131610644565b60200260200101516001600160a01b031686838151811061015457610154610644565b60200260200101517f9507739a1926e5aeedce47a7499ba58d9496121377be3c973e3147649efdc57c85858151811061018f5761018f610644565b6020026020010151426040516101af929190918252602082015260400190565b60405180910390a4806101c181610670565b9150506100eb565b5050505050565b8160068111156101e2576101e261065a565b604080518381524260208201526001600160a01b0386169187917f9507739a1926e5aeedce47a7499ba58d9496121377be3c973e3147649efdc57c910160405180910390a450505050565b826001600160a01b0316847f733a5d287cff8e47e416bf6b647fa72152785263bb9d847491be384c4b5d8cfc84844260405161026b93929190610697565b60405180910390a350505050565b634e487b7160e01b600052604160045260246000fd5b604051601f8201601f1916810167ffffffffffffffff811182821017156102b8576102b8610279565b604052919050565b600067ffffffffffffffff8211156102da576102da610279565b5060051b60200190565b80356001600160a01b03811681146102fb57600080fd5b919050565b600082601f83011261031157600080fd5b81356020610326610321836102c0565b61028f565b82815260059290921b8401810191818101908684111561034557600080fd5b8286015b848110156103675761035a816102e4565b8352918301918301610349565b509695505050505050565b8035600781106102fb57600080fd5b600082601f83011261039257600080fd5b813560206103a2610321836102c0565b82815260059290921b840181019181810190868411156103c157600080fd5b8286015b84811015610367576103d681610372565b83529183019183016103c5565b600082601f8301126103f457600080fd5b81356020610404610321836102c0565b82815260059290921b8401810191818101908684111561042357600080fd5b8286015b848110156103675780358352918301918301610427565b6000806000806080858703121561045457600080fd5b843567ffffffffffffffff8082111561046c57600080fd5b818701915087601f83011261048057600080fd5b81356020610490610321836102c0565b82815260059290921b8401810191818101908b8411156104af57600080fd5b948201945b838610156104cd578535825294820194908201906104b4565b985050880135925050808211156104e357600080fd5b6104ef88838901610300565b9450604087013591508082111561050557600080fd5b61051188838901610381565b9350606087013591508082111561052757600080fd5b50610534878288016103e3565b91505092959194509250565b6000806000806080858703121561055657600080fd5b84359350610566602086016102e4565b925061057460408601610372565b9396929550929360600135925050565b6000806000806080858703121561059a57600080fd5b8435935060206105ab8187016102e4565b93506105b960408701610372565b9250606086013567ffffffffffffffff808211156105d657600080fd5b818801915088601f8301126105ea57600080fd5b8135818111156105fc576105fc610279565b61060e601f8201601f1916850161028f565b9150808252898482850101111561062457600080fd5b808484018584013760008482840101525080935050505092959194509250565b634e487b7160e01b600052603260045260246000fd5b634e487b7160e01b600052602160045260246000fd5b60006001820161069057634e487b7160e01b600052601160045260246000fd5b5060010190565b6000600785106106b757634e487b7160e01b600052602160045260246000fd5b8482526020606081840152845180606085015260005b818110156106e9578681018301518582016080015282016106cd565b506000608082860101526080601f19601f8301168501019250505082604083015294935050505056fea2646970667358221220ea66c5c6d363555954275fec551a2496bcc28aca0d10b061afcda88450d266af64736f6c63430008130033",
  "linkReferences": {},
  "deployedLinkReferences": {}
}