{
  "_format": "hh-sol-artifact-1",
  "contractName": "DoctorRegistry",
  "sourceName": "contracts/DoctorRegistry.sol",
  "abi": [
    {
      "inputs": [],
      "stateMutability": "nonpayable",
      "type": "constructor"
    },
    {
      "anonymous": false,
      "inputs": [
        {
          "indexed": true,
          "internalType": "address",
          "name": "doctor",
          "type": "address"
        },
        {
          "indexed": false,
          "internalType": "string",
          "name": "newProfileCID",
          "type": "string"
        },
        {
          "indexed": false,
          "internalType": "uint256",
          "name": "timestamp",
          "type": "uint256"
        }
      ],
      "name": "DoctorProfileUpdated",
      "type": "event"
    },
    {
      "anonymous": false,
      "inputs": [
        {
          "indexed": true,
          "internalType": "address",
          "name": "doctor",
          "type": "address"
        },
        {
          "indexed": false,
          "internalType": "string",
          "name": "profileCID",
          "type": "string"
        },
        {
          "indexed": false,
          "internalType": "uint256",
          "name": "timestamp",
          "type": "uint256"
        }
      ],
      "name": "DoctorRegistered",
      "type": "event"
    },
    {
      "anonymous": false,
      "inputs": [
        {
          "indexed": true,
          "internalType": "address",
          "name": "doctor",
          "type": "address"
        },
        {
          "indexed": false,
          "internalType": "string",
          "name": "reason",
          "type": "string"
        },
        {
          "indexed": false,
          "internalType": "uint256",
          "name": "timestamp",
          "type": "uint256"
        }
      ],
      "name": "DoctorRejected",
      "type": "event"
    },
    {
      "anonymous": false,
      "inputs": [
        {
          "indexed": true,
          "internalType": "address",
          "name": "doctor",
          "type": "address"
        },
        {
          "indexed": false,
          "internalType": "string",
          "name": "reason",
          "type": "string"
        },
        {
          "indexed": false,
          "internalType": "uint256",
          "name": "timestamp",
          "type": "uint256"
        }
      ],
      "name": "DoctorSuspended",
      "type": "event"
    },
    {
      "anonymous": false,
      "inputs": [
        {
          "indexed": true,
          "internalType": "address",
          "name": "doctor",
          "type": "address"
        },
        {
          "indexed": false,
          "internalType": "uint256",
          "name": "timestamp",
          "type": "uint256"
        }
      ],
      "name": "DoctorVerified",
      "type": "event"
    },
    {
      "inputs": [],
      "name": "admin",
      "outputs": [
        {
          "internalType": "address",
          "name": "",
          "type": "address"
        }
      ],
      "stateMutability": "view",
      "type": "function"
    },
    {
      "inputs": [
        {
          "internalType": "address",
          "name": "",
          "type": "address"
        }
      ],
      "name": "doctors",
      "outputs": [
        {
          "internalType": "address",
          "name": "walletAddress",
          "type": "address"
        },
        {
          "internalType": "string",
          "name": "profileCID",
          "type": "string"
        },
        {
          "internalType": "string",
          "name": "licenseNumber",
          "type": "string"
        },
        {
          "internalType": "enum DoctorRegistry.VerificationStatus",
          "name": "status",
          "type": "uint8"
        },
        {
          "internalType": "bool",
          "name": "isRegistered",
          "type": "bool"
        },
        {
          "internalType": "uint256",
          "name": "registeredAt",
          "type": "uint256"
        },
        {
          "internalType": "uint256",
          "name": "verifiedAt",
          "type": "uint256"
        }
      ],
      "stateMutability": "view",
      "type": "function"
    },
    {
      "inputs": [
        {
          "internalType": "address",
          "name": "_doctor",
          "type": "address"
        }
      ],
      "name": "getDoctorInfo",
      "outputs": [
        {
          "internalType": "string",
          "name": "profileCID",
          "type": "string"
        },
        {
          "internalType": "enum DoctorRegistry.VerificationStatus",
          "name": "status",
          "type": "uint8"
        },
        {
          "internalType": "uint256",
          "name": "registeredAt",
          "type": "uint256"
        },
        {
          "internalType": "uint256",
          "name": "verifiedAt",
          "type": "uint256"
        }
      ],
      "stateMutability": "view",
      "type": "function"
    },
    {
      "inputs": [
        {
          "internalType": "address",
          "name": "_doctor",
          "type": "address"
        }
      ],
      "name": "isVerifiedDoctor",
      "outputs": [
        {
          "internalType": "bool",
          "name": "",
          "type": "bool"
        }
      ],
      "stateMutability": "view",
      "type": "function"
    },
    {
      "inputs": [
        {
          "internalType": "string",
          "name": "_profileCID",
          "type": "string"
        },
        {
          "internalType": "string",
          "name": "_licenseNumber",
          "type": "string"
        }
      ],
      "name": "registerDoctor",
      "outputs": [],
      "stateMutability": "nonpayable",
      "type": "function"
    },
    {
      "inputs": [
        {
          "internalType": "address",
          "name": "_doctor",
          "type": "address"
        },
        {
          "internalType": "string",
          "name": "_reason",
          "type": "string"
        }
      ],
      "name": "rejectDoctor",
      "outputs": [],
      "stateMutability": "nonpayable",
      "type": "function"
    },
    {
      "inputs": [
        {
          "internalType": "address",
          "name": "_doctor",
          "type": "address"
        },
        {
          "internalType": "string",
          "name": "_reason",
          "type": "string"
        }
      ],
      "name": "suspendDoctor",
      "outputs": [],
      "stateMutability": "nonpayable",
      "type": "function"
    },
    {
      "inputs": [
        {
          "internalType": "address",
          "name": "_newAdmin",
          "type": "address"
        }
      ],
      "name": "transferAdmin",
      "outputs": [],
      "stateMutability": "nonpayable",
      "type": "function"
    },
    {
      "inputs": [
        {
          "internalType": "string",
          "name": "_newProfileCID",
          "type": "string"
        }
      ],
      "name": "updateProfile",
      "outputs": [],
      "stateMutability": "nonpayable",
      "type": "function"
    },
    {
      "inputs": [
        {
          "internalType": "address",
          "name": "_doctor",
          "type": "address"
        }
      ],
      "name": "verifyDoctor",
      "outputs": [],
      "stateMutability": "nonpayable",
      "type": "function"
    }
  ],
  "bytecode": "0x608060405234801561001057600080fd5b50600180546001600160a01b0319163317905561110d806100326000396000f3fe608060405234801561001057600080fd5b506004361061009d5760003560e01c806375829def1161006657806375829def14610128578063833b46bb1461013b578063a9583c221461014e578063d80cb05c14610174578063f851a4401461018757600080fd5b80629299e3146100a25780631bf9d751146100b75780631e3cc3fa146100df57806330ab126a146100f25780636f12fc3514610105575b600080fd5b6100b56100b0366004610cc2565b6101b2565b005b6100ca6100c5366004610d1b565b6102a6565b60405190151581526020015b60405180910390f35b6100b56100ed366004610d3d565b61030c565b6100b5610100366004610d3d565b6103dc565b610118610113366004610d1b565b61049e565b6040516100d69493929190610e09565b6100b5610136366004610d1b565b6106be565b6100b5610149366004610e3d565b610758565b61016161015c366004610d1b565b610987565b6040516100d69796959493929190610e97565b6100b5610182366004610d1b565b610ae3565b60015461019a906001600160a01b031681565b6040516001600160a01b0390911681526020016100d6565b33600090815260208190526040902060030154610100900460ff166101f25760405162461bcd60e51b81526004016101e990610efb565b60405180910390fd5b60008151116102435760405162461bcd60e51b815260206004820152601b60248201527f50726f66696c65204349442063616e6e6f7420626520656d707479000000000060448201526064016101e9565b33600090815260208190526040902060010161025f8282610fb3565b50336001600160a01b03167f2a954ba81fab57a61ce5c1bc541c34ae3788b4a836564040fd39e50ca51d7c37824260405161029b929190611073565b60405180910390a250565b6001600160a01b038116600090815260208190526040812060030154610100900460ff168015610306575060016001600160a01b038316600090815260208190526040902060039081015460ff169081111561030457610304610dd1565b145b92915050565b6001546001600160a01b031633146103365760405162461bcd60e51b81526004016101e990611095565b6001600160a01b038216600090815260208190526040902060030154610100900460ff166103765760405162461bcd60e51b81526004016101e990610efb565b6001600160a01b038216600081815260208190526040908190206003908101805460ff19169091179055517fd8d691097392d526ba2b884dbb828cda98c66e6386fdc9da862721fd3a2470ce906103d09084904290611073565b60405180910390a25050565b6001546001600160a01b031633146104065760405162461bcd60e51b81526004016101e990611095565b6001600160a01b038216600090815260208190526040902060030154610100900460ff166104465760405162461bcd60e51b81526004016101e990610efb565b6001600160a01b03821660008181526020819052604090819020600301805460ff19166002179055517f0b7288e7a0c489effafce60c0d8856b578955930471fda27c2b6607238e2e6ee906103d09084904290611073565b6001600160a01b0381166000908152602081905260408120600301546060919081908190610100900460ff166104e65760405162461bcd60e51b81526004016101e990610efb565b6001600160a01b03808616600090815260208181526040808320815160e081019092528054909416815260018401805493949193919284019161052890610f2a565b80601f016020809104026020016040519081016040528092919081815260200182805461055490610f2a565b80156105a15780601f10610576576101008083540402835291602001916105a1565b820191906000526020600020905b81548152906001019060200180831161058457829003601f168201915b505050505081526020016002820180546105ba90610f2a565b80601f01602080910402602001604051908101604052809291908181526020018280546105e690610f2a565b80156106335780601f1061060857610100808354040283529160200191610633565b820191906000526020600020905b81548152906001019060200180831161061657829003601f168201915b505050918352505060038281015460209092019160ff169081111561065a5761065a610dd1565b600381111561066b5761066b610dd1565b81526003820154610100900460ff16151560208083019190915260048301546040830152600590920154606091820152908201519082015160a083015160c0909301519199909850919650945092505050565b6001546001600160a01b031633146106e85760405162461bcd60e51b81526004016101e990611095565b6001600160a01b0381166107365760405162461bcd60e51b8152602060048201526015602482015274496e76616c69642061646d696e206164647265737360581b60448201526064016101e9565b600180546001600160a01b0319166001600160a01b0392909216919091179055565b33600090815260208190526040902060030154610100900460ff16156107c05760405162461bcd60e51b815260206004820152601960248201527f446f63746f7220616c726561647920726567697374657265640000000000000060448201526064016101e9565b60008251116108115760405162461bcd60e51b815260206004820152601b60248201527f50726f66696c65204349442063616e6e6f7420626520656d707479000000000060448201526064016101e9565b60008151116108625760405162461bcd60e51b815260206004820152601760248201527f4c6963656e7365206e756d62657220726571756972656400000000000000000060448201526064016101e9565b6040805160e081018252338152602081018490529081018290526060810160008152600160208083018290524260408085019190915260006060909401849052338452838252909220835181546001600160a01b0319166001600160a01b0390911617815591830151908201906108d99082610fb3565b50604082015160028201906108ee9082610fb3565b5060608201518160030160006101000a81548160ff0219169083600381111561091957610919610dd1565b021790555060808201516003820180549115156101000261ff001990921691909117905560a0820151600482015560c09091015160059091015560405133907f1f5e33d2573da99a901bca6b2c06d5f12b75dfd179bcbbe46a5216cf8349ee6b906103d09085904290611073565b600060208190529081526040902080546001820180546001600160a01b0390921692916109b390610f2a565b80601f01602080910402602001604051908101604052809291908181526020018280546109df90610f2a565b8015610a2c5780601f10610a0157610100808354040283529160200191610a2c565b820191906000526020600020905b815481529060010190602001808311610a0f57829003601f168201915b505050505090806002018054610a4190610f2a565b80601f0160208091040260200160405190810160405280929190818152602001828054610a6d90610f2a565b8015610aba5780601f10610a8f57610100808354040283529160200191610aba565b820191906000526020600020905b815481529060010190602001808311610a9d57829003601f168201915b50505060038401546004850154600590950154939460ff80831695610100909304169350915087565b6001546001600160a01b03163314610b0d5760405162461bcd60e51b81526004016101e990611095565b6001600160a01b038116600090815260208190526040902060030154610100900460ff16610b4d5760405162461bcd60e51b81526004016101e990610efb565b6001600160a01b038116600090815260208190526040812060039081015460ff1690811115610b7e57610b7e610dd1565b14610bc05760405162461bcd60e51b8152602060048201526012602482015271446f63746f72206e6f742070656e64696e6760701b60448201526064016101e9565b6001600160a01b0381166000818152602081815260409182902060038101805460ff1916600117905542600590910181905591519182527fe2fbb45b2567c8db16d2b0f3af498fbcf981237ea102e00178d85f1fe69bd13f910161029b565b634e487b7160e01b600052604160045260246000fd5b600082601f830112610c4657600080fd5b813567ffffffffffffffff80821115610c6157610c61610c1f565b604051601f8301601f19908116603f01168101908282118183101715610c8957610c89610c1f565b81604052838152866020858801011115610ca257600080fd5b836020870160208301376000602085830101528094505050505092915050565b600060208284031215610cd457600080fd5b813567ffffffffffffffff811115610ceb57600080fd5b610cf784828501610c35565b949350505050565b80356001600160a01b0381168114610d1657600080fd5b919050565b600060208284031215610d2d57600080fd5b610d3682610cff565b9392505050565b60008060408385031215610d5057600080fd5b610d5983610cff565b9150602083013567ffffffffffffffff811115610d7557600080fd5b610d8185828601610c35565b9150509250929050565b6000815180845260005b81811015610db157602081850181015186830182015201610d95565b506000602082860101526020601f19601f83011685010191505092915050565b634e487b7160e01b600052602160045260246000fd5b60048110610e0557634e487b7160e01b600052602160045260246000fd5b9052565b608081526000610e1c6080830187610d8b565b9050610e2b6020830186610de7565b60408201939093526060015292915050565b60008060408385031215610e5057600080fd5b823567ffffffffffffffff80821115610e6857600080fd5b610e7486838701610c35565b93506020850135915080821115610e8a57600080fd5b50610d8185828601610c35565b6001600160a01b038816815260e060208201819052600090610ebb90830189610d8b565b8281036040840152610ecd8189610d8b565b915050610edd6060830187610de7565b931515608082015260a081019290925260c090910152949350505050565b602080825260159082015274111bd8dd1bdc881b9bdd081c9959da5cdd195c9959605a1b604082015260600190565b600181811c90821680610f3e57607f821691505b602082108103610f5e57634e487b7160e01b600052602260045260246000fd5b50919050565b601f821115610fae57600081815260208120601f850160051c81016020861015610f8b5750805b601f850160051c820191505b81811015610faa57828155600101610f97565b5050505b505050565b815167ffffffffffffffff811115610fcd57610fcd610c1f565b610fe181610fdb8454610f2a565b84610f64565b602080601f8311600181146110165760008415610ffe5750858301515b600019600386901b1c1916600185901b178555610faa565b600085815260208120601f198616915b8281101561104557888601518255948401946001909101908401611026565b50858210156110635787850151600019600388901b60f8161c191681555b5050505050600190811b01905550565b6040815260006110866040830185610d8b565b90508260208301529392505050565b60208082526022908201527f4f6e6c792061646d696e2063616e20706572666f726d2074686973206163746960408201526137b760f11b60608201526080019056fea264697066735822122040e7f813a2c45b4d1a61be15ac7f9c1db9e0f79a09fb520e05123046e398603264736f6c63430008130033",
  "linkReferences": {},
  "deployedLinkReferences": {}
}