{
  "_format": "hh-sol-artifact-1",
  "contractName": "PatientRegistry",
  "sourceName": "contracts/PatientRegistry.sol",
  "abi": [
    {
      "anonymous": false,
      "inputs": [
        {
          "indexed": true,
          "internalType": "address",
          "name": "patient",
          "type": "address"
        },
        {
          "indexed": false,
          "internalType": "string",
          "name": "newProfileCID",
          "type": "string"
        },
        {
          "indexed": false,
          "internalType": "uint256",
          "name": "timestamp",
          "type": "uint256"
        }
      ],
      "name": "PatientProfileUpdated",
      "type": "event"
    },
    {
      "anonymous": false,
      "inputs": [
        {
          "indexed": true,
          "internalType": "address",
          "name": "patient",
          "type": "address"
        },
        {
          "indexed": false,
          "internalType": "string",
          "name": "profileCID",
          "type": "string"
        },
        {
          "indexed": false,
          "internalType": "uint256",
          "name": "timestamp",
          "type": "uint256"
        }
      ],
      "name": "PatientRegistered",
      "type": "event"
    },
    {
      "inputs": [
        {
          "internalType": "address",
          "name": "_patient",
          "type": "address"
        }
      ],
      "name": "getPatientProfile",
      "outputs": [
        {
          "internalType": "string",
          "name": "",
          "type": "string"
        }
      ],
      "stateMutability": "view",
      "type": "function"
    },
    {
      "inputs": [
        {
          "internalType": "address",
          "name": "_patient",
          "type": "address"
        }
      ],
      "name": "isPatient",
      "outputs": [
        {
          "internalType": "bool",
          "name": "",
          "type": "bool"
        }
      ],
      "stateMutability": "view",
      "type": "function"
    },
    {
      "inputs": [
        {
          "internalType": "address",
          "name": "",
          "type": "address"
        }
      ],
      "name": "patients",
      "outputs": [
        {
          "internalType": "address",
          "name": "walletAddress",
          "type": "address"
        },
        {
          "internalType": "string",
          "name": "profileCID",
          "type": "string"
        },
        {
          "internalType": "bool",
          "name": "isRegistered",
          "type": "bool"
        },
        {
          "internalType": "uint256",
          "name": "registeredAt",
          "type": "uint256"
        }
      ],
      "stateMutability": "view",
      "type": "function"
    },
    {
      "inputs": [
        {
          "internalType": "string",
          "name": "_profileCID",
          "type": "string"
        }
      ],
      "name": "registerPatient",
      "outputs": [],
      "stateMutability": "nonpayable",
      "type": "function"
    },
    {
      "inputs": [
        {
          "internalType": "string",
          "name": "_newProfileCID",
          "type": "string"
        }
      ],
      "name": "updateProfile",
      "outputs": [],
      "stateMutability": "nonpayable",
      "type": "function"
    }
  ],
  "bytecode": "0x608060405234801561001057600080fd5b50610887806100206000396000f3fe608060405234801561001057600080fd5b50600436106100565760003560e01c80629299e31461005b5780630869cfbc14610070578063461a20821461009c578063869c9eaf146100bc5780638f9c79ed146100cf575b600080fd5b61006e610069366004610575565b61010e565b005b61008361007e366004610626565b610222565b604051610093949392919061069c565b60405180910390f35b6100af6100aa366004610626565b6102e1565b60405161009391906106d3565b61006e6100ca366004610575565b6103f3565b6100fe6100dd366004610626565b6001600160a01b031660009081526020819052604090206002015460ff1690565b6040519015158152602001610093565b3360009081526020819052604090206002015460ff1661016e5760405162461bcd60e51b815260206004820152601660248201527514185d1a595b9d081b9bdd081c9959da5cdd195c995960521b60448201526064015b60405180910390fd5b60008151116101bf5760405162461bcd60e51b815260206004820152601b60248201527f50726f66696c65204349442063616e6e6f7420626520656d70747900000000006044820152606401610165565b3360009081526020819052604090206001016101db828261076f565b50336001600160a01b03167f26d9752c724a76a92f9be7a4fd2064feac7fe12df3fa2c7093cea9df61e91b0c824260405161021792919061082f565b60405180910390a250565b600060208190529081526040902080546001820180546001600160a01b03909216929161024e906106e6565b80601f016020809104026020016040519081016040528092919081815260200182805461027a906106e6565b80156102c75780601f1061029c576101008083540402835291602001916102c7565b820191906000526020600020905b8154815290600101906020018083116102aa57829003601f168201915b505050506002830154600390930154919260ff1691905084565b6001600160a01b03811660009081526020819052604090206002015460609060ff166103485760405162461bcd60e51b815260206004820152601660248201527514185d1a595b9d081b9bdd081c9959da5cdd195c995960521b6044820152606401610165565b6001600160a01b0382166000908152602081905260409020600101805461036e906106e6565b80601f016020809104026020016040519081016040528092919081815260200182805461039a906106e6565b80156103e75780601f106103bc576101008083540402835291602001916103e7565b820191906000526020600020905b8154815290600101906020018083116103ca57829003601f168201915b50505050509050919050565b3360009081526020819052604090206002015460ff16156104565760405162461bcd60e51b815260206004820152601a60248201527f50617469656e7420616c726561647920726567697374657265640000000000006044820152606401610165565b60008151116104a75760405162461bcd60e51b815260206004820152601b60248201527f50726f66696c65204349442063616e6e6f7420626520656d70747900000000006044820152606401610165565b60408051608081018252338082526020808301858152600184860181905242606086015260009384529183905293909120825181546001600160a01b0319166001600160a01b03909116178155925191929190820190610507908261076f565b5060408281015160028301805460ff19169115159190911790556060909201516003909101555133907f096f893428730b9f440cde9930f6fbd450ce2d7ac1f2895f0d869da7376a36d190610217908490429061082f565b634e487b7160e01b600052604160045260246000fd5b60006020828403121561058757600080fd5b813567ffffffffffffffff8082111561059f57600080fd5b818401915084601f8301126105b357600080fd5b8135818111156105c5576105c561055f565b604051601f8201601f19908116603f011681019083821181831017156105ed576105ed61055f565b8160405282815287602084870101111561060657600080fd5b826020860160208301376000928101602001929092525095945050505050565b60006020828403121561063857600080fd5b81356001600160a01b038116811461064f57600080fd5b9392505050565b6000815180845260005b8181101561067c57602081850181015186830182015201610660565b506000602082860101526020601f19601f83011685010191505092915050565b6001600160a01b03851681526080602082018190526000906106c090830186610656565b9315156040830152506060015292915050565b60208152600061064f6020830184610656565b600181811c908216806106fa57607f821691505b60208210810361071a57634e487b7160e01b600052602260045260246000fd5b50919050565b601f82111561076a57600081815260208120601f850160051c810160208610156107475750805b601f850160051c820191505b8181101561076657828155600101610753565b5050505b505050565b815167ffffffffffffffff8111156107895761078961055f565b61079d8161079784546106e6565b84610720565b602080601f8311600181146107d257600084156107ba5750858301515b600019600386901b1c1916600185901b178555610766565b600085815260208120601f198616915b82811015610801578886015182559484019460019091019084016107e2565b508582101561081f5787850151600019600388901b60f8161c191681555b5050505050600190811b01905550565b6040815260006108426040830185610656565b9050826020830152939250505056fea2646970667358221220e41bfd87446599d844890efd9ebcd715922d92569889f011befa5632bb385d5464736f6c63430008130033",
  "linkReferences": {},
  "deployedLinkReferences": {}
}