{
  "_format": "hh-sol-artifact-1",
  "contractName": "RecordRegistry",
  "sourceName": "contracts/RecordRegistry.sol",
  "abi": [
    {
      "inputs": [
        {
          "internalType": "address",
          "name": "_patientRegistry",
          "type": "address"
        },
        {
          "internalType": "address",
          "name": "_doctorRegistry",
          "type": "address"
        }
      ],
      "stateMutability": "nonpayable",
      "type": "constructor"
    },
    {
      "anonymous": false,
      "inputs": [
        {
          "indexed": true,
          "internalType": "uint256",
          "name": "recordId",
          "type": "uint256"
        },
        {
          "indexed": true,
          "internalType": "address",
          "name": "owner",
          "type": "address"
        },
        {
          "indexed": false,
          "internalType": "string",
          "name": "dataCID",
          "type": "string"
        },
        {
          "indexed": false,
          "internalType": "enum RecordRegistry.RecordType",
          "name": "recordType",
          "type": "uint8"
        },
        {
          "indexed": true,
          "internalType": "address",
          "name": "addedBy",
          "type": "address"
        },
        {
          "indexed": false,
          "internalType": "uint256",
          "name": "timestamp",
          "type": "uint256"
        }
      ],
      "name": "RecordAdded",
      "type": "event"
    },
    {
      "anonymous": false,
      "inputs": [
        {
          "indexed": true,
          "internalType": "uint256",
          "name": "recordId",
          "type": "uint256"
        },
        {
          "indexed": false,
          "internalType": "uint256",
          "name": "timestamp",
          "type": "uint256"
        }
      ],
      "name": "RecordDeactivated",
      "type": "event"
    },
    {
      "inputs": [
        {
          "internalType": "address",
          "name": "_owner",
          "type": "address"
        },
        {
          "internalType": "string",
          "name": "_dataCID",
          "type": "string"
        },
        {
          "internalType": "string",
          "name": "_encryptedKeyCID",
          "type": "string"
        },
        {
          "internalType": "enum RecordRegistry.RecordType",
          "name": "_recordType",
          "type": "uint8"
        },
        {
          "internalType": "bytes32",
          "name": "_recordHash",
          "type": "bytes32"
        },
        {
          "internalType": "string",
          "name": "_shortDescription",
          "type": "string"
        }
      ],
      "name": "addRecord",
      "outputs": [
        {
          "internalType": "uint256",
          "name": "",
          "type": "uint256"
        }
      ],
      "stateMutability": "nonpayable",
      "type": "function"
    },
    {
      "inputs": [
        {
          "internalType": "uint256",
          "name": "_recordId",
          "type": "uint256"
        }
      ],
      "name": "deactivateRecord",
      "outputs": [],
      "stateMutability": "nonpayable",
      "type": "function"
    },
    {
      "inputs": [],
      "name": "doctorRegistry",
      "outputs": [
        {
          "internalType": "contract DoctorRegistry",
          "name": "",
          "type": "address"
        }
      ],
      "stateMutability": "view",
      "type": "function"
    },
    {
      "inputs": [
        {
          "internalType": "address",
          "name": "_patient",
          "type": "address"
        }
      ],
      "name": "getActivePatientRecordIds",
      "outputs": [
        {
          "internalType": "uint256[]",
          "name": "",
          "type": "uint256[]"
        }
      ],
      "stateMutability": "view",
      "type": "function"
    },
    {
      "inputs": [
        {
          "internalType": "address",
          "name": "_patient",
          "type": "address"
        }
      ],
      "name": "getPatientRecordIds",
      "outputs": [
        {
          "internalType": "uint256[]",
          "name": "",
          "type": "uint256[]"
        }
      ],
      "stateMutability": "view",
      "type": "function"
    },
    {
      "inputs": [
        {
          "internalType": "uint256",
          "name": "_recordId",
          "type": "uint256"
        }
      ],
      "name": "getRecord",
      "outputs": [
        {
          "components": [
            {
              "internalType": "uint256",
              "name": "recordId",
              "type": "uint256"
            },
            {
              "internalType": "address",
              "name": "owner",
              "type": "address"
            },
            {
              "internalType": "string",
              "name": "dataCID",
              "type": "string"
            },
            {
              "internalType": "string",
              "name": "encryptedKeyCID",
              "type": "string"
            },
            {
              "internalType": "enum RecordRegistry.RecordType",
              "name": "recordType",
              "type": "uint8"
            },
            {
              "internalType": "bytes32",
              "name": "recordHash",
              "type": "bytes32"
            },
            {
              "internalType": "string",
              "name": "shortDescription",
              "type": "string"
            },
            {
              "internalType": "address",
              "name": "addedBy",
              "type": "address"
            },
            {
              "internalType": "uint256",
              "name": "createdAt",
              "type": "uint256"
            },
            {
              "internalType": "bool",
              "name": "isActive",
              "type": "bool"
            }
          ],
          "internalType": "struct RecordRegistry.Record",
          "name": "",
          "type": "tuple"
        }
      ],
      "stateMutability": "view",
      "type": "function"
    },
    {
      "inputs": [],
      "name": "getTotalRecords",
      "outputs": [
        {
          "internalType": "uint256",
          "name": "",
          "type": "uint256"
        }
      ],
      "stateMutability": "view",
      "type": "function"
    },
    {
      "inputs": [],
      "name": "patientRegistry",
      "outputs": [
        {
          "internalType": "contract PatientRegistry",
          "name": "",
          "type": "address"
        }
      ],
      "stateMutability": "view",
      "type": "function"
    },
    {
      "inputs": [
        {
          "internalType": "uint256",
          "name": "",
          "type": "uint256"
        }
      ],
      "name": "records",
      "outputs": [
        {
          "internalType": "uint256",
          "name": "recordId",
          "type": "uint256"
        },
        {
          "internalType": "address",
          "name": "owner",
          "type": "address"
        },
        {
          "internalType": "string",
          "name": "dataCID",
          "type": "string"
        },
        {
          "internalType": "string",
          "name": "encryptedKeyCID",
          "type": "string"
        },
        {
          "internalType": "enum RecordRegistry.RecordType",
          "name": "recordType",
          "type": "uint8"
        },
        {
          "internalType": "bytes32",
          "name": "recordHash",
          "type": "bytes32"
        },
        {
          "internalType": "string",
          "name": "shortDescription",
          "type": "string"
        },
        {
          "internalType": "address",
          "name": "addedBy",
          "type": "address"
        },
        {
          "internalType": "uint256",
          "name": "createdAt",
          "type": "uint256"
        },
        {
          "internalType": "bool",
          "name": "isActive",
          "type": "bool"
        }
      ],
      "stateMutability": "view",
      "type": "function"
    }
  ],
  "bytecode": "0x608060405234801561001057600080fd5b50604051620016923803806200169283398101604081905261003191610082565b600380546001600160a01b039384166001600160a01b03199182161790915560048054929093169116179055600080556100b5565b80516001600160a01b038116811461007d57600080fd5b919050565b6000806040838503121561009557600080fd5b61009e83610066565b91506100ac60208401610066565b90509250929050565b6115cd80620000c56000396000f3fe608060405234801561001057600080fd5b50600436106100935760003560e01c80635250c6e2116100665780635250c6e2146101115780636248204e1461013c57806382cfb2ff1461015c578063dc7112301461016f578063f614b8571461018257600080fd5b806303e9e609146100985780630aeacb5e146100c157806319c1833f146100d357806334461067146100e8575b600080fd5b6100ab6100a6366004610fe0565b610195565b6040516100b89190611077565b60405180910390f35b6000545b6040519081526020016100b8565b6100e66100e1366004610fe0565b610457565b005b6100fb6100f6366004610fe0565b61057a565b6040516100b89a99989796959493929190611153565b600354610124906001600160a01b031681565b6040516001600160a01b0390911681526020016100b8565b61014f61014a3660046111fc565b610781565b6040516100b8919061121e565b600454610124906001600160a01b031681565b61014f61017d3660046111fc565b6108a1565b6100c5610190366004611305565b610b1a565b61019d610f73565b60008281526001602052604081205490036101f75760405162461bcd60e51b8152602060048201526015602482015274149958dbdc9908191bd95cc81b9bdd08195e1a5cdd605a1b60448201526064015b60405180910390fd5b60008281526001602081815260409283902083516101408101855281548152928101546001600160a01b0316918301919091526002810180549293919291840191610241906113bf565b80601f016020809104026020016040519081016040528092919081815260200182805461026d906113bf565b80156102ba5780601f1061028f576101008083540402835291602001916102ba565b820191906000526020600020905b81548152906001019060200180831161029d57829003601f168201915b505050505081526020016003820180546102d3906113bf565b80601f01602080910402602001604051908101604052809291908181526020018280546102ff906113bf565b801561034c5780601f106103215761010080835404028352916020019161034c565b820191906000526020600020905b81548152906001019060200180831161032f57829003601f168201915b5050509183525050600482015460209091019060ff1660058111156103735761037361103f565b60058111156103845761038461103f565b8152602001600582015481526020016006820180546103a2906113bf565b80601f01602080910402602001604051908101604052809291908181526020018280546103ce906113bf565b801561041b5780601f106103f05761010080835404028352916020019161041b565b820191906000526020600020905b8154815290600101906020018083116103fe57829003601f168201915b505050918352505060078201546001600160a01b031660208201526008820154604082015260099091015460ff16151560609091015292915050565b600081815260016020819052604090912001546001600160a01b031633146104c15760405162461bcd60e51b815260206004820152601960248201527f4f6e6c79206f776e65722063616e20646561637469766174650000000000000060448201526064016101ee565b60008181526001602052604090206009015460ff166105225760405162461bcd60e51b815260206004820152601760248201527f5265636f726420616c726561647920696e61637469766500000000000000000060448201526064016101ee565b60008181526001602052604090819020600901805460ff191690555181907f5afb45aa2d38ed48f6353969b5ae81293be9a5e0958b159fdae4974992eeaf869061056f9042815260200190565b60405180910390a250565b60016020819052600091825260409091208054918101546002820180546001600160a01b0390921692916105ad906113bf565b80601f01602080910402602001604051908101604052809291908181526020018280546105d9906113bf565b80156106265780601f106105fb57610100808354040283529160200191610626565b820191906000526020600020905b81548152906001019060200180831161060957829003601f168201915b50505050509080600301805461063b906113bf565b80601f0160208091040260200160405190810160405280929190818152602001828054610667906113bf565b80156106b45780601f10610689576101008083540402835291602001916106b4565b820191906000526020600020905b81548152906001019060200180831161069757829003601f168201915b5050505060048301546005840154600685018054949560ff90931694919350906106dd906113bf565b80601f0160208091040260200160405190810160405280929190818152602001828054610709906113bf565b80156107565780601f1061072b57610100808354040283529160200191610756565b820191906000526020600020905b81548152906001019060200180831161073957829003601f168201915b505050506007830154600884015460099094015492936001600160a01b039091169290915060ff168a565b600354604051638f9c79ed60e01b81526001600160a01b0383811660048301526060921690638f9c79ed90602401602060405180830381865afa1580156107cc573d6000803e3d6000fd5b505050506040513d601f19601f820116820180604052508101906107f091906113f9565b6108375760405162461bcd60e51b8152602060048201526018602482015277139bdd0818481c9959da5cdd195c9959081c185d1a595b9d60421b60448201526064016101ee565b6001600160a01b0382166000908152600260209081526040918290208054835181840281018401909452808452909183018282801561089557602002820191906000526020600020905b815481526020019060010190808311610881575b50505050509050919050565b600354604051638f9c79ed60e01b81526001600160a01b0383811660048301526060921690638f9c79ed90602401602060405180830381865afa1580156108ec573d6000803e3d6000fd5b505050506040513d601f19601f8201168201806040525081019061091091906113f9565b6109575760405162461bcd60e51b8152602060048201526018602482015277139bdd0818481c9959da5cdd195c9959081c185d1a595b9d60421b60448201526064016101ee565b6001600160a01b0382166000908152600260209081526040808320805482518185028101850190935280835291929091908301828280156109b757602002820191906000526020600020905b8154815260200190600101908083116109a3575b505050505090506000805b8251811015610a2757600160008483815181106109e1576109e161141b565b60209081029190910181015182528101919091526040016000206009015460ff1615610a155781610a1181611431565b9250505b80610a1f81611431565b9150506109c2565b5060008167ffffffffffffffff811115610a4357610a43611262565b604051908082528060200260200182016040528015610a6c578160200160208202803683370190505b5090506000805b8451811015610b0f5760016000868381518110610a9257610a9261141b565b60209081029190910181015182528101919091526040016000206009015460ff1615610afd57848181518110610aca57610aca61141b565b6020026020010151838381518110610ae457610ae461141b565b602090810291909101015281610af981611431565b9250505b80610b0781611431565b915050610a73565b509095945050505050565b600354604051638f9c79ed60e01b81526001600160a01b0388811660048301526000921690638f9c79ed90602401602060405180830381865afa158015610b65573d6000803e3d6000fd5b505050506040513d601f19601f82011682018060405250810190610b8991906113f9565b610bd55760405162461bcd60e51b815260206004820181905260248201527f4f776e6572206d75737420626520726567697374657265642070617469656e7460448201526064016101ee565b6000865111610c1a5760405162461bcd60e51b815260206004820152601160248201527011185d184810d251081c995c5d5a5c9959607a1b60448201526064016101ee565b6000855111610c6b5760405162461bcd60e51b815260206004820152601a60248201527f456e63727970746564206b65792043494420726571756972656400000000000060448201526064016101ee565b606482511115610cb45760405162461bcd60e51b81526020600482015260146024820152734465736372697074696f6e20746f6f206c6f6e6760601b60448201526064016101ee565b336001600160a01b0388161480610d33575060048054604051631bf9d75160e01b815233928101929092526001600160a01b031690631bf9d75190602401602060405180830381865afa158015610d0f573d6000803e3d6000fd5b505050506040513d601f19601f82011682018060405250810190610d3391906113f9565b610d955760405162461bcd60e51b815260206004820152602d60248201527f556e617574686f72697a65643a206f6e6c792070617469656e74206f7220766560448201526c3934b334b2b2103237b1ba37b960991b60648201526084016101ee565b600080549080610da483611431565b9190505550600080549050604051806101400160405280828152602001896001600160a01b03168152602001888152602001878152602001866005811115610dee57610dee61103f565b815260208082018790526040808301879052336060840152426080840152600160a09093018390526000858152838352819020845181559184015192820180546001600160a01b0319166001600160a01b0390941693909317909255908201516002820190610e5d90826114a7565b5060608201516003820190610e7290826114a7565b50608082015160048201805460ff19166001836005811115610e9657610e9661103f565b021790555060a0820151600582015560c08201516006820190610eb990826114a7565b5060e08201516007820180546001600160a01b0319166001600160a01b039283161790556101008301516008830155610120909201516009909101805460ff191691151591909117905588166000818152600260209081526040808320805460018101825590845291909220018390555133919083907f28ecb8adc9c3483867e6db3f2491071dd4aeb7d4794cf97a5f0c24aa8a883eff90610f60908c908b904290611567565b60405180910390a4979650505050505050565b6040518061014001604052806000815260200160006001600160a01b03168152602001606081526020016060815260200160006005811115610fb757610fb761103f565b815260006020820181905260606040830181905282018190526080820181905260a09091015290565b600060208284031215610ff257600080fd5b5035919050565b6000815180845260005b8181101561101f57602081850181015186830182015201611003565b506000602082860101526020601f19601f83011685010191505092915050565b634e487b7160e01b600052602160045260246000fd5b6006811061107357634e487b7160e01b600052602160045260246000fd5b9052565b60208152815160208201526000602083015161109e60408401826001600160a01b03169052565b5060408301516101408060608501526110bb610160850183610ff9565b91506060850151601f19808685030160808701526110d98483610ff9565b9350608087015191506110ef60a0870183611055565b60a087015160c087015260c08701519150808685030160e0870152506111158382610ff9565b92505060e0850151610100611134818701836001600160a01b03169052565b8601516101208681019190915290950151151593019290925250919050565b8a81526001600160a01b038a811660208301526101406040830181905260009161117f8483018d610ff9565b91508382036060850152611193828c610ff9565b91506111a2608085018b611055565b8860a085015283820360c08501526111ba8289610ff9565b961660e08401525050610100810192909252151561012090910152979650505050505050565b80356001600160a01b03811681146111f757600080fd5b919050565b60006020828403121561120e57600080fd5b611217826111e0565b9392505050565b6020808252825182820181905260009190848201906040850190845b818110156112565783518352928401929184019160010161123a565b50909695505050505050565b634e487b7160e01b600052604160045260246000fd5b600082601f83011261128957600080fd5b813567ffffffffffffffff808211156112a4576112a4611262565b604051601f8301601f19908116603f011681019082821181831017156112cc576112cc611262565b816040528381528660208588010111156112e557600080fd5b836020870160208301376000602085830101528094505050505092915050565b60008060008060008060c0878903121561131e57600080fd5b611327876111e0565b9550602087013567ffffffffffffffff8082111561134457600080fd5b6113508a838b01611278565b9650604089013591508082111561136657600080fd5b6113728a838b01611278565b9550606089013591506006821061138857600080fd5b9093506080880135925060a088013590808211156113a557600080fd5b506113b289828a01611278565b9150509295509295509295565b600181811c908216806113d357607f821691505b6020821081036113f357634e487b7160e01b600052602260045260246000fd5b50919050565b60006020828403121561140b57600080fd5b8151801515811461121757600080fd5b634e487b7160e01b600052603260045260246000fd5b60006001820161145157634e487b7160e01b600052601160045260246000fd5b5060010190565b601f8211156114a257600081815260208120601f850160051c8101602086101561147f5750805b601f850160051c820191505b8181101561149e5782815560010161148b565b5050505b505050565b815167ffffffffffffffff8111156114c1576114c1611262565b6114d5816114cf84546113bf565b84611458565b602080601f83116001811461150a57600084156114f25750858301515b600019600386901b1c1916600185901b17855561149e565b600085815260208120601f198616915b828110156115395788860151825594840194600190910190840161151a565b50858210156115575787850151600019600388901b60f8161c191681555b5050505050600190811b01905550565b60608152600061157a6060830186610ff9565b90506115896020830185611055565b82604083015294935050505056fea2646970667358221220093138ad31499aedb73df0321f53c8cb3c68c40b0196fd82ced7d8a2aa7de32964736f6c63430008130033",
  "linkReferences": {},
  "deployedLinkReferences": {}
}